:020000040800F2
:1000000040AD01209D010008A5010008A7010008DE
:10001000A9010008AB010008AD01000800000000C4
:10002000000000000000000000000000AF01000818
:10003000B101000800000000B3010008033E000801
:10004000B7010008B7010008B7010008B7010008B0
:10005000B7010008B7010008B7010008B7010008A0
:10006000B7010008B7010008B7010008B701000890
:10007000B7010008B7010008B7010008B701000880
:100080001105000835050008B7010008B701000890
:10009000B7010008B7010008B7010008B701000860
:1000A000B7010008B7010008B7010008B701000850
:1000B000B7010008B7010008B7010008B701000840
:1000C000B7010008B7010008B7010008B701000830
:1000D000B7010008B7010008D99F0008B701000860
:1000E000B7010008B7010008B7010008B701000810
:1000F000B7010008B7010008B7010008B701000800
:10010000B7010008B7010008B7010008B7010008EF
:10011000B7010008B7010008B7010008B7010008DF
:10012000B7010008B7010008B7010008B7010008CF
:10013000B7010008B7010008B7010008B7010008BF
:10014000B7010008B7010008B7010008B7010008AF
:10015000B7010008B7010008B7010008B70100089F
:10016000B7010008B7010008B7010008B70100088F
:10017000B7010008B7010008B7010008000000003F
:10018000B7010008B7010008DFF80CD000F0E2F872
:100190000048004735AD000840AD012006488047C3
:1001A00006480047FEE7FEE7FEE7FEE7FEE7FEE75C
:1001B000FEE7FEE7FEE7FEE7113E000889010008C2
:1001C00010B5431A934209D28318881803E010F837
:1001D000011D03F8011D521EF9D210BD40EA0103B2
:1001E0009B0703D009E008C9121F08C0042AFAD2ED
:1001F00003E011F8013B00F8013B521EF9D210BD9B
:10020000D2B201E000F8012B491EFBD27047002258
:10021000F6E710B513460A4604461946FFF7F0FF05
:10022000204610BD421E12F8013F002BFBD111F8F1
:10023000013B02F8013B002BF9D1704730B5054670
:100240002A460B4612F8010B13F8014B08B1A042E5
:10025000F8D01CB1002802D06D1CF1E7284630BD53
:10026000421C10F8011B0029FBD1801A704710B501
:10027000002200E0521C835C8C5CA34201D1002B65
:10028000F8D1D8B2E1B2401A10BD70B506460AF0F6
:10029000B7FA046805460A220021304600F021F82A
:1002A0002C6070BDA0E8004FF0C040F804DB01B541
:1002B000AFF30080BDE8024001C10020704700F1AB
:1002C0002C080C4658F8040DAFF3008058F8040DC4
:1002D0008546200008BF012038E9F00018E9004FEA
:1002E00070472DE9F04791460F46804604460026A8
:1002F00014F8015B2DB100F03FF80068405DC007C5
:10030000F6D12B2D02D02D2D18D0641E4A46394629
:10031000204600F035F827B13968A14201D1C7F86D
:10032000008071054FF002040BD54042002803DD28
:100330000AF066FA0460A007BDE8F08746F480661C
:10034000E4E70028F8DA0AF05BFA04606FF0004096
:10035000F2E70000064C074D06E0E06840F00103BC
:1003600094E8070098471034AC42F6D3FFF710FF2B
:100370004CB600086CB600080048704790B2000800
:100380002DE9F05F82460078002715468B460AF17A
:100390000104B946302801D09DB113E014F8010BD7
:1003A0000127782803D0582801D045B10AE00DB1C3
:1003B000102D07D10027102514F8010B02E00825A5
:1003C00000E00A250026B0460EE005FB080005FB0C
:1003D00006F1012701EB10461FFA80F8B6F5803FC1
:1003E00000D3B94614F8010B294600F018F800288C
:1003F000EBDABBF1000F05D00FB1641E00E05446EC
:10040000CBF80040B9F1000F06D00AF0F9F902214B
:100410000160C81EBDE8F09F48EA0640FAE73A28A6
:1004200000D2303820F02002412A01D3A2F1370057
:10043000884201D34FF0FF30704770B58C1810F828
:10044000015B15F0070301D110F8013B2A1106D119
:1004500010F8012B03E010F8016B01F8016B5B1E33
:10046000F9D12B0705D40023521E0DD401F8013B0E
:10047000FAE710F8013BCB1A921C03E013F8015B7A
:1004800001F8015B521EF9D5A142D8D3002070BDFE
:1004900010B58AB01248069012480790124805908D
:1004A000154801AC114B124A124984E80F00134859
:1004B0000090134B134A144905A809F03DF8134C5A
:1004C0000F4B104AE06000200190029003900490CE
:1004D00000900D4905A809F02FF820610AB010BD61
:1004E000300000207C0100209C01002088B1000821
:1004F000B8B10008DCB00008A0B100088CB000085A
:100500006CB000084CB00008D4AF00081400002004
:1005100010B5102002F077FA1021054803F0FEFB19
:10052000002803D0BDE8104001F036B810BD00002F
:100530009C01002010B5112002F065FA1121054838
:1005400003F0ECFB002803D0BDE8104001F024B814
:1005500010BD00009C01002010B50446406D03F062
:1005600083FB204600F030FB2168206D00F0C6F8C8
:10057000002084F8580010BD2DE9F04107461D46C3
:10058000164688465C200AF0F7FC040010D05C2177
:10059000FFF73DFE276030224146201D2665FFF70C
:1005A0000FFE0020656584F858002046BDE8F08104
:1005B0000020FBE7002801D00AF0B8BC704770B5F6
:1005C0000D4606464168104603F09CFB04000AD025
:1005D00032682346291D2868FFF7CEFF002803D183
:1005E000204603F096FB002070BD10B50C0008D02B
:1005F000606D08B10AF09AFC2046BDE810400AF090
:1006000095BC10BD10B504460168006D00F00CF8F3
:10061000204601F09DFE2146606D03F093FB012012
:1006200084F8580010BD000030B5314D1824012267
:10063000304BA9421BD02E4D1835A94217D02C4D56
:100640003035A94213D02A4D4835A9420FD0284D44
:100650006035A9420BD0264D7835A94207D0244DEC
:100660009035A94203D0224DA835A9420FD1204D83
:100670006D42294491FBF4F104788A40144314F04C
:10068000FF01017032D0186840F400102DE01A4DBF
:10069000A9421BD0184D1835A94217D0164D303538
:1006A000A94213D0144D4835A9420FD0124D6035E0
:1006B000A9420BD0104D7835A94207D00E4D903588
:1006C000A94203D00C4DA835A9420FD10A4D6D4265
:1006D000294491FBF4F144788A40144314F0FF015B
:1006E000417003D0186840F48000186030BD0000ED
:1006F00010600240303802401064024030B52F4D87
:10070000182401232E4AA9421BD02C4D1835A9428A
:1007100017D02A4D3035A94213D0284D4835A9426B
:100720000FD0264D6035A9420BD0244D7835A94213
:1007300007D0224D9035A94203D0204DA835A942BB
:100740000DD11E4D6D42294491FBF4F40178A34074
:100750009943017030D1106820F400102BE0194D3E
:10076000A9421BD0174D1835A94217D0154D303569
:10077000A94213D0134D4835A9420FD0114D603511
:10078000A9420BD00F4D7835A94207D00D4D9035B9
:10079000A94203D00B4DA835A9420DD1094D6D4298
:1007A000294491FBF4F44178A3409943417003D16B
:1007B000106820F48000106030BD0000106002401E
:1007C000303802401064024010B52C4C182301222E
:1007D000A1421BD0294C1834A14217D0274C3034E9
:1007E000A14213D0254C4834A1420FD0234C603491
:1007F000A1420BD0214C7834A14207D01F4C903439
:10080000A14203D01D4CA834A14206D11B4C007854
:100810006442214491FBF3F124E0194CA1421BD026
:10082000174C1834A14217D0154C3034A14213D0C4
:10083000134C4834A1420FD0114C6034A1420BD06C
:100840000F4C7834A14207D00D4C9034A14203D014
:100850000B4CA834A1420AD1094C4078644221448F
:1008600091FBF3F18A40104000D0012010BDBF2160
:1008700004A00AF01BF8002010BD00001060024028
:10088000106402402E2E5C2E2E5C2E2E5C2E2E5CD2
:100890002E2E5C2E2E5C447269766572735C4D530D
:1008A000505C5372635C646D612E630010B5046824
:1008B00063608368402B036803D099600068C2605E
:1008C00010BD9A600068C16010BD2DE9F041064678
:1008D00015460F4620200AF04FFB04000ED02021C1
:1008E000FFF795FC14223946201D2660FFF768FCAF
:1008F0000020A56120772046BDE8F0810020FBE7BD
:1009000010B50446D4E9000101F09AFED4E90012C2
:10091000A06900F085F80020207710BD002801D0E4
:100920000AF004BB704710B504468069D4E9001290
:1009300000F008F8211D206801F0D4FE0120207786
:1009400010BD00002D4B994201D1002121E02C4B1C
:10095000994201D101211CE02A4B994201D1022187
:1009600017E0294B994201D1032112E0274B99420C
:1009700001D104210DE0264B994201D1052108E067
:10098000244B994201D1062103E0234B99421BD10C
:10099000072130F811301A4392B220F81120002BB1
:1009A00012D1002A10D01D4808290DD2DFE801F02D
:1009B00004080D1115191D21016841F0010102E023
:1009C000016841F0020101607047016841F00401D3
:1009D000F9E7016841F00801F5E7016841F010010D
:1009E000F1E7016841F02001EDE7016841F04001C5
:1009F000E9E7016841F08001E5E7000000000240FE
:100A00000004024000080240000C024000100240B6
:100A10000014024000180240001C0240303802401E
:100A20002D4B994201D1002121E02C4B994201D15B
:100A300001211CE02A4B994201D1022117E0294BE8
:100A4000994201D1032112E0274B994201D104219F
:100A50000DE0264B994201D1052108E0244B994233
:100A600001D1062103E0234B99421BD1072130F825
:100A7000113023EA020220F81120002B12D0002AA4
:100A800010D11D4808290DD2DFE801F004080D112E
:100A900015191D21016821F0010102E0016821F012
:100AA000020101607047016821F00401F9E7016863
:100AB00021F00801F5E7016821F01001F1E7016874
:100AC00021F02001EDE7016821F04001E9E701682C
:100AD00021F08001E5E70000000002400004024030
:100AE00000080240000C02400010024000140240C6
:100AF00000180240001C024030380240174B994257
:100B000001D1002121E0164B994201D101211CE0C5
:100B1000144B994201D1022117E0134B994201D1A4
:100B2000032112E0114B994201D104210DE0104B39
:100B3000994201D1052108E00E4B994201D10621CD
:100B400003E00D4B994206D1072130F81100104007
:100B500000D00120704700207047000000000240D4
:100B60000004024000080240000C02400010024055
:100B70000014024000180240001C024070B50446F8
:100B80000068016821F00101016001F011FF00F52A
:100B90007A7500260EE000BF01F00AFFA84209D3D3
:100BA00054F84C0F40F0200044F818090320267038
:100BB000607070BD20680068C007EDD104F8346F24
:100BC00001206070002070BD2DE9F04F90F83510C5
:100BD000022946D001680A6822F001020A60026810
:100BE0000021116002685160026891600268D16062
:100BF00002681161026821215161DFF800C4DFF849
:100C000000844FF4807B4FF4802EFE4AFB4BFD4C5A
:100C1000FA4DFC4EF94FDFF8EC93DFF8E0A30168E2
:100C2000483B603418351836303F09F178090AF12D
:100C3000300A614539D9A3F1040CDCF800C09142B7
:100C40002ED099422CD0A1422AD0A94228D0B1421C
:100C500005D0B94203D0494501D0514504D1D84609
:100C60001EE00120BDE8F08FDFF8988308F130081E
:100C7000414511D0DFF88483A8F1180841450BD015
:100C8000DFF8808308F19008414505D0DFF86C83D8
:100C900008F14808414501D1F04601E04FF0807865
:100CA000D6494CEA080C4C393DE0DFF858C30CF14A
:100CB000A80C61453AD9DFF844C3ACF1500CDCF81C
:100CC00000C091422BD0994229D0A14227D0A942FD
:100CD00025D0B14205D0B94203D0494501D0514594
:100CE00001D1D8461BE0DFF81C8308F130084145EC
:100CF00011D0DFF80883A8F1180841450BD0DFF8C0
:100D0000048308F19008414505D0DFF8F08208F12E
:100D10004808414501D1F04601E04FF08078B749DD
:100D20004CEA080C5039C1F800C072E0DFF8D4C2B8
:100D30000CF1480C6145DFF8D0C235D9DCF80CC0A5
:100D400091422BD0994229D0A14227D0A94225D047
:100D5000B14205D0B94203D0494501D0514501D136
:100D6000D8461BE0DFF89C8208F13008414511D0DD
:100D7000DFF88882A8F1180841450BD0DFF884829B
:100D800008F19008414505D0DFF8708208F1480865
:100D9000414501D1F04601E04FF080789A494CEA94
:100DA000080CC1F80CC034E0DCF808C091422BD02C
:100DB000994229D0A14227D0A94225D0B14205D0DD
:100DC000B94203D0494501D0514501D1D8461BE075
:100DD000DFF8308208F13008414511D0DFF81C827D
:100DE000A8F1180841450BD0DFF8188208F19008E7
:100DF000414505D0DFF8048208F14808414501D19A
:100E0000F04601E04FF080787F494CEA080CC1F8C9
:100E100008C0DFF8E8C101684FF4006B4FF4001E12
:100E200061453AD9DFF8D4C1ACF14C0CDCF800C014
:100E3000914205D0994203D0A14201D0A94201D1EB
:100E4000202125E0B14205D0B94203D0494501D067
:100E5000514501D159461BE0DFF8A88108F130085F
:100E6000414511D0DFF89481A8F1180841450BD015
:100E7000DFF8908108F19008414505D0DFF87C81CA
:100E800008F14808414501D1714601E04FF0006189
:100E90004CEA010C59494C393FE0DFF868C10CF1CC
:100EA000A80C61453CD9DFF854C1ACF1500CDCF81A
:100EB00000C0914205D0994203D0A14201D0A9427D
:100EC00001D1202125E0B14205D0B94203D04945E6
:100ED00001D0514501D159461BE0DFF8288108F1C6
:100EE0003008414511D0DFF81481A8F118084145B8
:100EF0000BD0DFF8108108F19008414505D0DFF8EC
:100F0000FC8008F14808414501D1714601E04FF0ED
:100F100000614CEA010C39495039C1F800C07FE04A
:100F2000DFF8E0C00CF1480C6145DFF8DCC037D9D0
:100F3000DCF80CC0914205D0994203D0A14201D007
:100F4000A94201D1202125E0B14205D0B94203D008
:100F5000494501D0514501D159461BE0DFF8A48035
:100F600008F13008414511D0DFF89080A8F1180849
:100F700041450BD0DFF88C8008F19008414505D041
:100F8000DFF8788008F14808414501D1714601E059
:100F90004FF000614CEA010C1B49C1F80CC03FE066
:100FA000DCF808C0914205D0994203D0A14201D09B
:100FB000A94201D120212EE0B14205D0B94203D08F
:100FC000494501D0514501D1594624E0DFF834802C
:100FD00008F1300841451AD0DFF82080A8F1180840
:100FE000414514D0DFF81C8008F1900841450ED02F
:100FF000DFF8088008F14808414507E058640240DE
:1010000004008000106002400060024001D171467F
:1010100001E04FF000614CEA010CFB49C1F808C047
:10102000DFF8E8C301684FF4007B4FF4002E614500
:101030003AD9DFF8D8C3ACF14C0CDCF800C09142CF
:1010400005D0994203D0A14201D0A94201D1082183
:1010500025E0B14205D0B94203D0494501D0514500
:1010600001D159461BE0DFF8A08308F14008414553
:1010700011D0DFF89883A8F1180841450BD0DFF8AC
:10108000888308F1A008414505D0DFF8808308F186
:101090004808414501D1714601E04FF000714CEA2A
:1010A000010CDA494C393FE0DFF85CC30CF1B80CB5
:1010B00061453CD9DFF854C3ACF1500CDCF800C0FA
:1010C000914205D0994203D0A14201D0A94201D159
:1010D000082125E0B14205D0B94203D0494501D0ED
:1010E000514501D159461BE0DFF81C8308F1400847
:1010F000414511D0DFF81483A8F1180841450BD001
:10110000DFF8048308F1A008414505D0DFF8FC8230
:1011100008F14808414501D1714601E04FF00071E6
:101120004CEA010CB9495039C1F800C076E0DFF84B
:10113000D8C20CF1580C6145DFF8CCC237D9DCF8C5
:101140000CC0914205D0994203D0A14201D0A942DE
:1011500001D1082125E0B14205D0B94203D049456B
:1011600001D0514501D159461BE0DFF89C8208F1BE
:101170004008414511D0DFF89482A8F11808414594
:101180000BD0DFF8848208F1A008414505D0DFF8D4
:101190007C8208F14808414501D1714601E04FF0D9
:1011A00000714CEA010C9849C1F80CC036E0DCF83B
:1011B00008C0914205D0994203D0A14201D0A94272
:1011C00001D1082125E0B14205D0B94203D04945FB
:1011D00001D0514501D159461BE0DFF82C8208F1BE
:1011E0004008414511D0DFF82482A8F11808414594
:1011F0000BD0DFF8148208F1A008414505D0DFF8D4
:101200000C8208F14808414501D1714601E04FF0D8
:1012100000714CEA010C7C49C1F808C0DFF8ECC150
:101220000168DFF8EC814FF4803B4FF4800E61459C
:1012300039D9DFF8D8C1ACF14C0CDCF800C09142D0
:1012400005D0994203D0A14201D0A94201D1414623
:1012500024E0B14205D0B94203D0494501D05145FF
:1012600001D140211AE0DFF8A08108F14008414592
:1012700011D0DFF89881A8F1180841450BD0DFF8AC
:10128000888108F1A008414505D0DFF8808108F188
:101290004808414501D1594600E071464CEA010C2D
:1012A0005A494C393EE0DFF860C10CF1B80C614599
:1012B0003BD9DFF858C1ACF1500CDCF800C09142CA
:1012C00005D0994203D0A14201D0A94201D14146A3
:1012D00024E0B14205D0B94203D0494501D051457F
:1012E00001D140211AE0DFF8208108F14008414592
:1012F00011D0DFF81881A8F1180841450BD0DFF8AC
:10130000088108F1A008414505D0DFF8008108F107
:101310004808414501D1594600E071464CEA010CAC
:101320003A495039C1F800C07AE0DFF8DCC00CF16E
:10133000580C6145DFF8D0C036D9DCF80CC09142BA
:1013400005D0994203D0A14201D0A94201D1414622
:1013500024E0B14205D0B94203D0494501D05145FE
:1013600001D140211AE0DFF8A08008F14008414592
:1013700011D0DFF89880A8F1180841450BD0DFF8AC
:10138000888008F1A008414505D0DFF8808008F189
:101390004808414501D1594600E071464CEA010C2C
:1013A0001949C1F80CC03BE0DCF808C0914205D0F7
:1013B000994203D0A14201D0A94201D141462AE07D
:1013C000B14205D0B94203D0494501D0514501D1C0
:1013D000402120E0DFF8308008F14008414511D07D
:1013E000DFF82880A8F1180841450BD0DFF81880F5
:1013F00008F1A008414505D0DFF8108008F1480841
:10140000414507D1594606E0006002405864024059
:101410000100800071464CEA010C5D49C1F808C02A
:10142000DFF870C101684FF4806B4FF4801E614596
:1014300015D9DFF86081A8F14C081AE0A94221D142
:10144000102107E0514524D1594603E0714601E0DF
:101450004FF080614CEA010CC8F800C08FE0DFF863
:1014600030C10CF1B80C614524D9DFF82881A8F10E
:101470005008D8F800C09142E2D09942E0D0A14291
:10148000DED0DBE7B142DFD0B942DDD04945DBD069
:10149000D8E73F4A40329142D8D03E4A183A91426A
:1014A000D4D03B4AA0329142D0D03A4A48329142FD
:1014B000CED1CBE7DFF8D8C0DFF8D4800CF1580CE0
:1014C00061452ED9D8F80CC0914205D0994203D07D
:1014D000A14201D0A94201D110211DE0B14205D0A5
:1014E000B94203D0494501D0514501D1594613E0D5
:1014F000274A403291420BD0264A183A914207D0EF
:10150000234AA032914203D0224A4832914201D16B
:10151000714601E04FF080614CEA010CC8F80CC044
:101520002DE0D8F808C0914205D0994203D0A142DD
:1015300001D0A94201D110211DE0B14205D0B9422C
:1015400003D0494501D0514501D1594613E0104A15
:10155000403291420BD00F4A183A914207D00C4AC0
:10156000A032914203D00B4A4832914201D17146D8
:1015700001E04FF080614CEA010CC8F808C000217E
:10158000C16480F8351080F834100846BDE8F08F4B
:1015900000600240586402402DE9F05FFD490746B3
:1015A000FC4DFD4E00684A15DFF8E893DFF8E8A32C
:1015B000DFF8E0B39302F84C483D60364FF0007E10
:1015C00009F118090AF1180AABF1300B884224D945
:1015D000F049543927E0484534D100BF4FF0080C9A
:1015E0000AE0DFF8B0C30CF1300C604535D1944609
:1015F00002E09C4600E0F44611EA0C0F70D001684E
:1016000049076DD5016821F004010160E14938689E
:10161000884266D9DF494C3969E0DF49A831884200
:1016200003D9DC495839096805E0DB49483188426B
:10163000DA49F8D94968A042D0D0A842CED0B04209
:10164000CCD0C8E75045D2D05845D0D0DFF848C3F9
:101650000CF1780C6045CAD0C3E7DFF83CC30CF14D
:10166000300C6045C5D0DFF82CC3ACF1180C6045D8
:10167000BFD0DFF824C30CF1900C6045B9D0DFF87F
:1016800014C30CF1480C6045B5D1B2E7082222E042
:10169000504520D058451ED0DFF8FC8208F178086C
:1016A000404518D0DFF8EC8208F13008404512D0F0
:1016B000B94A303290420BD0B64A183A904207D01D
:1016C000B54A9032904203D0B24A4832904201D19A
:1016D0001A4600E072464CEA020CC1F800C07DE0F8
:1016E0008AE0AD49A83188420CD9AA495039D1F8CD
:1016F00000C0A042CAD0A842C8D0B042C6D0484517
:10170000C6D1C3E7A44948318842A44933D9D1F8A6
:101710000CC0A04205D0A84203D0B04201D0484539
:1017200001D1082222E0504520D058451ED0DFF8D4
:10173000688208F17808404518D0DFF8588208F12F
:101740003008404512D0944A303290420BD0914A32
:10175000183A904207D0904A9032904203D08D4A76
:101760004832904201D11A4600E072464CEA020C1F
:10177000C1F80CC032E0D1F808C0A04205D0A842A0
:1017800003D0B04201D0484501D1082222E05045A3
:1017900020D058451ED0DFF8008208F17808404577
:1017A00018D0DFF8F08108F13008404512D07A4AAD
:1017B000303290420BD0774A183A904207D0764A9E
:1017C0009032904203D0734A4832904201D11A4677
:1017D00000E072464CEA020CC1F808C0F86C40F018
:1017E0000100F864042087F83500002087F83400F1
:1017F000B96C09B138468847694A66493868D311D7
:101800004FF4800E884224D96249543927E0484574
:1018100034D194460CE0DFF87CC10CF1300C60450B
:1018200037D100BF4FF0400C02E09C4600E0F44688
:1018300011EA0C0F7ED0416909067BD5416921F080
:101840008001416153493868884253D951494C3924
:1018500056E05149A831884203D94E4958390968A0
:1018600005E04D49483188424C49F8D94968A042C1
:10187000CFD0A842CDD0B042CBD0C8E75045D1D0D0
:101880005845CFD0DFF810C10CF1780C6045C9D0B5
:10189000C1E7DFF804C10CF1300C6045C5D0DFF8BA
:1018A000F4C0ACF1180C6045BFD0DFF8ECC00CF10F
:1018B000900C6045B9D0DFF8DCC00CF1480C6045F5
:1018C000B5D1B2E7A8421FD0B0421DD048451BD0C9
:1018D000504509D0584507D02F4A7832904203D05E
:1018E0002C4A3032904214D140220DE01A460BE0CF
:1018F000724609E02849A83188421CD92549503947
:10190000D1F800C0A042DDD14CEA020CC1F800C001
:101910007BE0214A30329042E8D01E4A183A904289
:10192000E4D01D4A90329042E0D01A4A48329042A8
:10193000DED1DBE777E0184948318842174937D9CB
:10194000D1F80CC0A0422ED0A8422CD0B0422AD050
:10195000484528D0504509D0584507D00E4A78321E
:10196000904203D00B4A3032904201D140221AE01B
:10197000094A303290420BD0064A183A904207D0BA
:10198000054A9032904203D0024A4832904209D12F
:101990001A4608E0586402401060024000600240AD
:1019A0000100800072464CEA020CC1F80CC02CE029
:1019B000D1F808C0A04224D0A84222D0B04220D002
:1019C00048451ED0504507D0584505D0FE4A9042A4
:1019D00002D0FE4A904201D1402212E0FA4A483A2F
:1019E00090420BD0F94A483A904207D0F64A183252
:1019F000904203D0F54A1832904201D11A4600E0D5
:101A000072464CEA020CC1F808C0F86C40F00200C3
:101A1000F864042087F83500002087F83400B96C9A
:101A200009B138468847E94938683039E84A8B15A2
:101A30004FF4802E884223D9E449843926E0484572
:101A400033D194460AE0DFF884C3604536D19C4622
:101A500004E0F44602E000BF4FF0807C11EA0C0F76
:101A60007DD0016889077AD5016821F00201016003
:101A7000D64938683039884251D9D4497C3954E044
:101A8000D1493031884203D9D0498839096805E005
:101A9000CD4930398842CF49F8D94968A042D0D0E1
:101AA000A842CED0B042CCD0C9E75045CFD058459F
:101AB000CDD0DFF814C36045C9D0C4E7DFF814C344
:101AC0000CF1400C6045C4D0DFF800C3ACF1480C09
:101AD0006045BED0DFF8F0C20CF1180C6045B8D0FC
:101AE000DFF8E8C20CF1180C6045B5D1B1E7A842A7
:101AF0001FD0B0421DD048451BD0504507D0584597
:101B000005D0B14A904202D0B04A904216D11A464E
:101B10000FE072460DE000BF4FF0807209E0AA4965
:101B2000303188421CD9A9498039D1F800C0A0427F
:101B3000DDD14CEA020CC1F800C073E0A54A403286
:101B40009042E6D0A14A483A9042E2D09E4A1832EA
:101B50009042DED09D4A18329042DDD1D9E76FE045
:101B60009949303988429B492ED9D1F80CC0A042FE
:101B700025D0A84223D0B04221D048451FD050459F
:101B800007D0584505D0904A904202D08F4A9042E3
:101B900001D11A4613E08F4A403290420BD08B4A53
:101BA000483A904207D0884A1832904203D0874A78
:101BB0001832904201D1724601E04FF080724CEA37
:101BC000020CC1F80CC02DE0D1F808C0A04225D00D
:101BD000A84223D0B04221D048451FD0504507D05D
:101BE000584505D0784A904202D0784A904201D1B7
:101BF0001A4613E0774A403290420BD0734A483A73
:101C0000904207D0704A1832904203D06F4A18327F
:101C1000904201D1724601E04FF080724CEA020C12
:101C2000C1F808C0F86C40F00400F864042087F89C
:101C30003500002087F83400B96C09B13846884770
:101C4000624B3868303B19158A024FF0806E98421B
:101C500020D95E4B843B23E0484530D14FF0100C37
:101C600008E0DFF868C1604532D18C4602E0944656
:101C700000E0F44613EA0C0F7AD003681B0777D50F
:101C800003685B0375D5514B303B98425FD94F4B8E
:101C90007C3B62E04C4B3033984203D94B4B883B42
:101CA0001B6805E0484B303B98424A4BF8D95B68CB
:101CB000A042D3D0A842D1D0B042CFD0CCE750453B
:101CC000D3D05845D1D0DFF800C16045CDD0C8E7AA
:101CD000DFF800C10CF1400C6045C8D0DFF8ECC063
:101CE000ACF1480C6045C2D0DFF8DCC00CF1180C38
:101CF0006045BCD0DFF8D4C00CF1180C6045B8D1F9
:101D0000B5E710211EE050451CD058451AD0DFF829
:101D1000B880404516D0DFF8B480404512D02D4938
:101D2000403188420BD029494839884207D026499A
:101D30001831884203D025491831884201D1114613
:101D400000E071464CEA010CC3F800C07FE01E4B76
:101D5000303398420ED91D4B803BD3F800C0A042CF
:101D6000CFD0A842CDD0B042CBD04845CBD1C8E7E8
:101D70007CE08AE0144B303B9842164B38D9D3F8BC
:101D80000CC0A04205D0A84203D0B04201D04845C3
:101D900001D1102127E0504525D0584523D0DFF848
:101DA000288040451FD0DFF8248040451BD00949DA
:101DB0004031884214D005494839884210D0024940
:101DC000183188420CD007E08860024088640240E5
:101DD0000400800000600240FA491831884201D1B5
:101DE000114600E071464CEA010CC3F80CC02EE02D
:101DF000D3F808C0A04205D0A84203D0B04201D019
:101E0000484501D110211EE050451CD058451AD03C
:101E1000DFF8B483404516D0DFF8A883404512D0E0
:101E2000E949483988420BD0E6494839884207D009
:101E3000E5491831884203D0E2491831884201D17E
:101E4000114600E071464CEA010CC3F808C038683E
:101E5000016809034DD50068000303D55FF0410018
:101E600087F83500396C09B138468847DFF854C324
:101E70004FF400613868ACF1300C8A024FF0006E0C
:101E8000604577D9CF4B843BCEE00368DB0503D4B4
:101E9000036823F008030360CA4B3868303B98425C
:101EA00028D9C84B7C3B2BE010211EE050451CD0AC
:101EB00058451AD0DFF81083404516D0DFF8048368
:101EC000404512D0C049483988420BD0BD494839F5
:101ED000884207D0BC491831884203D0B94918312B
:101EE000884201D1114600E071464CEA010CC3F86A
:101EF00000C075E0B44B303398420CD9B14B803BF5
:101F0000D3F800C0A042CFD0A842CDD0B042CBD0B1
:101F10004845CBD1C8E7AC4B303B9842AB4B30D9AE
:101F2000D3F80CC0A04205D0A84203D0B04201D0E3
:101F3000484501D110211FE050451DD058451BD008
:101F4000DFF88482404517D0DFF87882404513D00F
:101F50009E49403188420BD09A494839884207D07F
:101F600099491831884203D096491831884202D1E4
:101F7000114601E052E071464CEA010CC3F80CC076
:101F80002EE0D3F808C0A04205D0A84203D0B0424A
:101F900001D0484501D110211EE050451CD05845C4
:101FA0001AD0DFF82482404516D0DFF81882404569
:101FB00012D08649403188420BD082494839884244
:101FC00007D081491831884203D07E4918318842B0
:101FD00001D1114600E071464CEA010CC3F808C07B
:101FE00031203DE748452ED14FF0200808E0DFF8CA
:101FF000D481404530D1884602E0904600E0F0466A
:1020000013EA080F76D00368DB0673D503685B0319
:1020100071D560455DD96B4B7C3B60E06A4B3033DA
:10202000984203D9674B883B1B6805E0664B303B01
:102030009842664BF8D95B68A042D5D0A842D3D06D
:10204000B042D1D0CEE75045D5D05845D3D0DFF8F7
:1020500078814045CFD0CAE7DFF8708108F14008A9
:102060004045CAD0DFF85C81A8F148084045C4D09B
:10207000DFF8548108F118084045BED0DFF84481EC
:1020800008F118084045BAD1B7E720211CE05045B7
:102090001AD0584518D04C4CA04215D0494CA042FB
:1020A00012D04A49403188420BD0464948398842CB
:1020B00007D045491831884203D042491831884237
:1020C00001D1114600E071464CEA010CC3F800C092
:1020D00072E03D4B303398420ED93A4B803BD3F8F7
:1020E00000C0A042D1D0A842CFD0B042CDD0484508
:1020F000CDD1CAE7E6E075E0334B303B9842334B35
:102100002DD9D3F80CC0A04205D0A84203D0B042CC
:1021100001D0484501D120211CE050451AD0584536
:1021200018D0294CA04215D0264CA04212D02749E5
:10213000403188420BD023494839884207D0224990
:102140001831884203D01F491831884201D1114605
:1021500000E071464CEA010CC3F80CC02CE0D3F847
:1021600008C0A04205D0A84203D0B04201D04845E3
:1021700001D120211CE050451AD0584518D0124CEE
:10218000A04215D00F4CA04212D0104940318842D5
:102190000BD00C494839884207D00B491831884286
:1021A00003D008491831884201D1114600E0714638
:1021B0004CEA010CC3F808C038680168090307D469
:1021C000796C09E088640240886002400060024047
:1021D0000068000376D5F96B002973D03846BDE856
:1021E000F05F08470368DB0503D4036823F010039E
:1021F00003603868604526D9524B2AE020211DE053
:1022000050451BD0584519D04F4CA04216D04D4CCC
:102210007C34A04212D04C49483988420BD04949FD
:102220003431884207D048491831884203D04549A3
:102230009431884201D1114600E071464CEA010C0C
:10224000C3F800C073E0404B303398420CD93D4B8B
:102250001B1FD3F800C0A042D0D0A842CED0B042BD
:10226000CCD04845CCD1C9E7374B303B9842374BAF
:102270002FD9D3F80CC0A04205D0A84203D0B04259
:1022800001D0484501D120211EE050451CD05845C1
:102290001AD02D4CA04217D02A4C7C34A04213D027
:1022A0002A49403188420BD026493431884207D030
:1022B00025491831884203D022499431884202D1FD
:1022C000114601E03CE071464CEA010CC3F80CC039
:1022D0002DE0D3F808C0A04205D0A84203D0B042F8
:1022E00001D0484501D120211DE050451BD0584563
:1022F00019D0154CA04216D0124C7C34A04212D0FA
:102300001249403188420BD00E493431884207D0FF
:102310000D491831884203D00A499431884201D1CD
:10232000114600E071464CEA010CC3F808C0F86C95
:10233000F864112087F83500002087F834004AE758
:10234000BDE8F09F0C6402408860024000600240DB
:1023500070B504007ED08B49206888423ED0894900
:10236000183188423AD087493031884236D0854981
:102370004831884232D08349603188422ED0814929
:10238000783188422AD07F499031884226D07D49D1
:10239000A831884222D07C4988421FD07A4918311E
:1023A00088421BD078493031884217D0764948316D
:1023B000884213D07449603188420FD07249783115
:1023C00088420BD070499031884207D06E49A831BD
:1023D000884203D0B5216D4808F068FA6068C0B142
:1023E000B0F1007F15D0B0F1806F12D0B0F1C06FA6
:1023F0000FD0B0F1006F0CD0B0F1206F09D0B0F168
:10240000406F06D0B0F1606F03D0B6215F4808F08E
:102410004DFAA06838B1402805D0802803D0B721F4
:102420005A4808F043FAE068B0F5007F04D018B1CC
:10243000B821564808F03AFA2069B0F5806F04D008
:1024400018B1B921514808F031FA606958B1B0F5B6
:10245000006F00E07CE006D0B0F5805F03D0BA21C9
:102460004A4808F023FAA06948B1B0F5005F06D0E9
:10247000B0F5804F03D0BB21444808F017FAE0695B
:1024800040B1B0F5807F05D0202803D0BC213F4863
:1024900008F00CFA206A60B1B0F5803F09D0B0F5C1
:1024A000003F06D0B0F5403F03D0BD21374808F0CB
:1024B000FDF9606A88B3042805D0BE21334808F0CE
:1024C000F5F9606A48B3A06A48B1012807D002282C
:1024D00005D0032803D0C3212C4808F0E7F9E06AAF
:1024E00060B1B0F5000F09D0B0F1807F06D0B0F137
:1024F000C07F03D0C421254808F0D8F9206B60B113
:10250000B0F5001F09D0B0F5800F06D0B0F5C00FB0
:1025100003D0C5211D4808F0C9F9022084F8350010
:10252000226811681A480140D4E901031843D4E92C
:1025300003352B43184363691843A3691843E369C0
:102540001843236A18430843616A042902D005E04E
:10255000012070BDD4E90B131943084310602268B1
:102560005069616A20F007000843042901D1A16A7B
:10257000084350610020E064012084F83500002009
:1025800070BD0000106002401064024058B40008A2
:102590003F8014F02DE9F041044690F834001D46C8
:1025A00016460F4601283BD0012084F83400022053
:1025B00084F83500681E4FF6FF71884204D340F25C
:1025C0007F11184808F072F92068016821F00101B4
:1025D00001602B46324639462046FEF767F92068EF
:1025E000016841F0100101602068016841F00801B4
:1025F00001602068016841F00401016020684169C0
:1026000041F0800141612068016841F002010160F0
:102610002068016841F0010101600020BDE8F081FF
:102620000220FBE758B40008044901B50868009A85
:1026300010440A688242FCD308BD0000300100202B
:102640002DE9F04700224FF0010900BF09FA02F41A
:1026500001EA0403A3423BD1066857000325BD40AD
:10266000AE430660D60800EB8606D6F820C05707B2
:102670004FEAD7684FF00F0A0AFA08F72CEA070C5E
:10268000C6F820C08668AE4386604668A6434660AA
:10269000C468AC43C4609407250F0AFA05F40F4DD3
:1026A00022F003063544D5F80868A643C5F8086843
:1026B0000B4C25689D432560241D25689D4325609E
:1026C000241D25689D432560241D25689D432560A4
:1026D000521C102ABAD3BDE8F08700000030014038
:1026E000003C01402DE9F05F044608680D4618B92A
:1026F000C3219B4808F0DAF86868F8B101281DD0BA
:1027000011281BD0022819D0122817D095498842C9
:1027100014D09549884211D0944988420ED09449EA
:1027200088420BD09349884208D09349884205D00B
:10273000032803D0C4218A4808F0B8F8A86838B143
:10274000012805D0022803D0C521854808F0AEF83D
:1027500000264FF0010B00BF0BFA06F02F688246EF
:10276000074057457ED16868022801D0122833D12E
:102770002869F8B109281DD001281BD0022819D0DA
:10278000032817D0042815D0052813D0062811D007
:1027900007280FD008280DD00A280BD00B2809D005
:1027A0000C2807D00D2805D00F2803D0D6216C485F
:1027B00008F07CF870072969C20E9140F00804EB1C
:1027C0008000036A4FF00F0C0CFA02FC23EA0C03A2
:1027D0000362026A0A43026222687100032000FA5F
:1027E00001F822EA0802894622602879216800F06F
:1027F000030000FA09F0084320606868012805D04A
:10280000022803D0112801D0122820D1E86848B14D
:10281000012807D0022805D0032803D0E62150481C
:1028200008F044F8A16821EA0801A160E868A168FD
:1028300000FA09F00843A060606820EA0A006060BE
:1028400061682879C0F30010B04001436160E1681D
:1028500021EA0801E160A868E16800FA09F008438C
:10286000E06000E076E06868C00073D54348016826
:1028700041F480410160B007020F414826F0030394
:1028800018440F21D0F8083891408B43C0F808381D
:102890003C498C4201D100212DE03B498C4201D1C1
:1028A000012128E039498C4201D1022123E0384935
:1028B0008C4201D103211EE036498C4201D1042112
:1028C00019E035498C4201D1052114E033498C428D
:1028D00001D106210FE032498C4201D107210AE0E3
:1028E00030498C4201D1082105E02F498C4201D1A9
:1028F000092100E00A219140D0F808281143C0F8CE
:1029000008182A480168B9430160011D0A68BA43E2
:102910000A606A68D20302D502683A4302606868B6
:10292000800302D5086838430860204808300168F1
:10293000B9430160011D0A68BA430A606A68D2029D
:1029400002D502683A4302606868800202D50868CE
:1029500038430860761C102EFFF4FEAEBDE8F09FF1
:10296000A0B4000800001110000021100000311078
:102970000000121000002210000032104438024003
:102980000030014000000240000402400008024004
:10299000000C0240001002400014024000180240E7
:1029A000001C02400020024000240240003C014084
:1029B00001480068704700003001002002480168AB
:1029C000491C016070470000300100200C4810B520
:1029D000016841F400710160016841F480610160A7
:1029E000016841F4807101604FF47A5000F069FC95
:1029F000032000F05DF800F005F8002010BD000095
:102A0000003C0240704700F01F0201219140400944
:102A1000800000F1E020C0F88012704700F01F0233
:102A2000012191404009800000F1E020C0F88011B0
:102A3000704700F01F02012191404009800000F121
:102A4000E020C0F80011704770B515460C460646E8
:102A5000102A03D3D221144807F028FF102C03D3E7
:102A6000D321114807F022FF10480068C0F3022369
:102A7000C3F107022046042A00D90422191D0729A0
:102A800001D2002300E0DB1E012404FA02F1491EFA
:102A9000014099409C40641E2C4021433046BDE8D3
:102AA000704001F08FB900000CB400080CED00E09C
:102AB00010B5044607280BD0062C09D0052C07D0EA
:102AC000042C05D0032C03D0BA21084807F0EEFEF1
:102AD000074904F0070208684FF6FF03184040EA70
:102AE0000220044A1043086010BD00000CB4000826
:102AF0000CED00E00000FA052DE9F04704460068FF
:102B00000E46401E0E2804D940F28B21A04807F043
:102B1000CDFE96B1012E10D0022E0ED0032E0CD079
:102B2000042E0AD0052E08D0062E06D0072E04D07B
:102B30004FF42371964807F0B9FEDFF85892D9F8A0
:102B40000000954D00F00F01F0B2934F083580461C
:102B500041F2883AB14252D2014689F80010D9F8C0
:102B6000000000F00F00B04270D12078C00732D0D2
:102B7000606868B101281FD0022820D040F2A2214D
:102B8000834807F093FE6068012815D0022816D00C
:102B900038688007002859DA2868616820F0030047
:102BA00008432860FFF704FF00EB0A06606801286D
:102BB0000CD0022814D01DE038688003EAE738689A
:102BC0008001E7E7FFF7F4FEB0425FD22868C0F368
:102BD00081000128F6D16AE0FFF7EAFEB04255D243
:102BE0002868C0F381000228F6D160E0FFF7E0FE1C
:102BF000B0424BD2286810F00C0FF7D157E0207884
:102C0000C0074AD0606868B1012820D0022821D0CE
:102C100040F2EA215E4807F049FE6068012816D0BC
:102C2000022817D03868800700283EDA28686168D3
:102C300020F0030008432860FFF7BAFE00EB0A0704
:102C4000606801280ED0022816D022E02DE03868F6
:102C50008003E9E738688001E6E700BFFFF7A8FED8
:102C6000B84213D22868C0F381000128F6D114E0DD
:102C7000FFF79EFEB84209D22868C0F381000228FF
:102C8000F6D10AE0FFF794FEB84202D30320BDE874
:102C9000F087286810F00C0FF4D189F80080D9F87B
:102CA000000000F00F00B04201D00120EFE72078D3
:102CB00080071CD5A068A0B1802812D0902810D021
:102CC000A0280ED0B0280CD0C0280AD0D02808D018
:102CD000E02806D0F02804D040F23A312C4807F022
:102CE000E5FD2868A16820F0F000084328602078FE
:102CF0004FF4805640074FF4A0574FF4C0584FF49C
:102D0000E05914D5E06860B1B0420AD0B84208D0AA
:102D1000404506D0484504D040F241311C4807F0F8
:102D2000C5FD2868E16820F4E05008432860207859
:102D3000000715D5206960B1B0420AD0B84208D06A
:102D4000404506D0484504D04FF45271104807F072
:102D5000ADFD2868216920F4604040EAC100286088
:102D600000F01EF84FF47A71B0FBF1F0401EB0F1A4
:102D7000807F0AD24FF0E0214861084AF02082F8B3
:102D8000140D002088610720086100207FE7000003
:102D9000E8B40008003C0240003802400FE000E0C8
:102DA00000B500F043F808490968F02292FAA2F24F
:102DB00001F0F001B2FA82F2D140044A515CC840FD
:102DC0000349086000BD000008380240E0B1000877
:102DD0001C01002000B5FFF7E3FF074909684FF425
:102DE000E05292FAA2F201F4E051B2FA82F2D1403A
:102DF000024A515CC84000BD08380240E0B10008FA
:102E000000B5FFF7CDFF074909684FF4604292FA19
:102E1000A2F201F46041B2FA82F2D140024A515C5E
:102E2000C84000BD08380240E0B1000830B51D4878
:102E3000006810F00C011C481AD01C4C042916D054
:102E4000082915D11749091F0A6802F03F030A68CB
:102E500002F480054FF4800292FAA2F2B2FA82F2F2
:102E6000D54047F6C07204D0B4FBF3F003E020462F
:102E700030BDB0FBF3F00B680968134092FAA2F280
:102E8000B2FA82F2D34058434FF4403292FAA2F29F
:102E900001F44031B2FA82F2D140491C4900B0FB42
:102EA000F1F030BD083802400024F40040787D0184
:102EB0002DE9F84F044600680F2804D94FF49A71A1
:102EC000F84807F0F3FC2078DFF8DC93F74DC007F3
:102ED0004FF0000655D0606840B1012806D00528A3
:102EE00004D040F23911EF4807F0E0FCD9F80010A7
:102EF0004846C1F38101012909D00068C0F381006F
:102F000002280BD1E848001F0068400206D5286857
:102F1000800336D5606801287ED132E0DFF88CA3CB
:102F20000AF1020A8AF80060FFF742FD41F2883791
:102F300000EB070804E000BFFFF73AFD40456CD204
:102F400028688003F8D420798AF800006068012896
:102F500003D0FFF72DFD074410E0FFF729FD0744DC
:102F600004E000BFFFF724FDB842E8D228688003E0
:102F7000F8D506E0FFF71CFDB842E0D228688003D0
:102F8000F8D42078CA4F80074FF0010B53D5E06882
:102F900030B1012804D040F27911C24807F086FC14
:102FA00020691F2804D94FF4BD71BE4807F07EFC8C
:102FB000D9F80010484611F00C0F09D00068C0F392
:102FC000810002280BD1B848001F0068400206D4D7
:102FD000286880072FD5E06801289DD12BE0E068A4
:102FE000E0B1C7F800B0FFF7E3FC00F1640803E0CC
:102FF000FFF7DEFC4045A2D228688007F8D5286894
:10300000F82292FAA2F22169B2FA82F220F0F800D4
:103010009140084328600EE02FE1E2E03E60FFF7B8
:10302000C7FC00F1640803E0FFF7C2FC404586D20C
:1030300028688007F8D4207800072FD5DFF868A229
:10304000DFF8708260690AF16C0AC0B1012806D00D
:103050004FF4D971934807F029FC606978B1C8F83A
:1030600000B0FFF7A5FC00F1640803E0FFF7A0FC47
:103070004045C0D2DAF800008007F7D50EE0C8F866
:103080000060FFF795FC00F1640803E0FFF790FC97
:103090004045B0D2DAF800008007F7D42078400726
:1030A0005ED5A06840B1012806D0052804D04FF4B1
:1030B000EE717C4807F0FAFB7B483830016841F03C
:1030C00080510160DFF8F0A1DAF8001041F480715E
:1030D000CAF80010FFF76CFC00F1640804E000BFC0
:1030E000FFF766FC40457CD2DAF80000C005F7D552
:1030F000DFF8B48108F1680888F80060FFF758FC31
:1031000041F2883A5044009005E000BFFFF750FCC0
:103110000099884265D2D8F800008007F6D4207A5A
:1031200088F80000A068012803D0FFF741FC824422
:1031300012E0FFF73DFC824404E000BFFFF738FCDB
:1031400050454ED2D8F800008007F7D508E000BF00
:10315000FFF72EFC504544D2D8F800008007F7D482
:10316000A069E8B3012808D0022806D04FF40871FE
:103170004C4807F09BFBA06990B3D9F80000C0F35E
:103180008100022879D0A069022805D03E66FFF7A9
:103190000FFC00F1640480E0E06938B1B0F5800F05
:1031A00004D040F229213F4807F080FB206A3F28E5
:1031B00004D940F22A213B4807F078FB606AC03806
:1031C000F02804D940F22B21364807F06FFBA06AA3
:1031D00002280DD004280BD0062809D0082801E0C9
:1031E0005EE057E004D04FF40B712E4807F05EFB11
:1031F000E06A001F0B2804D940F22D21294807F06E
:1032000055FB3E66FFF7D4FB00F1640604E000BF07
:10321000FFF7CEFBB0423DD228688001F8D4D4E954
:103220000710084347F6C07292FAA2F2616AB2FA36
:1032300082F29140A26A4FF0FF3303EB52024FF447
:10324000403393FAA3F3B3FA83F39A40114308434C
:103250004FF0706292FAA2F2E16AB2FA82F2914001
:10326000084340F000511048001F0160C7F860B0EB
:10327000FFF79EFB00F1640404E01FE0FFF798FBFA
:10328000A04207D228688001F8D509E0FFF790FB3B
:10329000A04202D30320BDE8F88F28688001F5D44E
:1032A0000020F8E7E8B4000808380240003802407F
:1032B00000004742800E4742007000400120EAE7CC
:1032C000704710B5401EB0F1807F01D3012010BDC2
:1032D0004FF0E02460610F21601700F073FD0020C3
:1032E000A06107202061002010BD10B5FFF7E8FFA6
:1032F00010BD00001A4910B51A4A884203D110685F
:10330000C0F3001010BD1749174B091F984203D195
:103310000868C0F3404010BD144B984203D10868C0
:10332000C0F3804010BD124B984203D10868C0F32F
:10333000C04010BD0F4B984203D10868C0F3005045
:1033400010BD0D49884203D11068C0F3401010BD74
:1033500040F22F1109A007F0A9FA002010BD0000CB
:103360000010014044380240004400400048004042
:10337000004C004000500040001401402E2E5C2EF6
:103380002E5C2E2E5C2E2E5C2E2E5C2E2E5C44721D
:1033900069766572735C4D53505C5372635C7573F0
:1033A0006172742E6300000090F8381001290FD06C
:1033B000012180F8381090F8391012290AD090F8BD
:1033C000391022290BD090F83910322911D00BE096
:1033D0000220704701684A6922F0800203E0016818
:1033E0004A6922F040024A61002180F838100846FC
:1033F000704701684A6922F080024A61EFE790F85D
:10340000381001290FD0012180F8381090F83910B8
:1034100012290AD090F8391022290BD090F83910CF
:10342000322919D00BE00220704701684A6942F046
:10343000800203E001684A6942F040024A61016883
:10344000CA68920403D4CA6842F40052CA600021D8
:1034500080F838100846704701684A6942F08002D7
:103460004A61E7E770B5044690F8380001281FD09C
:10347000012584F838502068416921F080014161BC
:103480002068416921F040014161206B08B1FDF7DE
:1034900075FB606B08B1FDF771FB2068C16821F412
:1034A0000051C16084F83950002084F8380070BDA4
:1034B000022070BD10B5040025D014492068884250
:1034C00013D01349884210D0124988420DD01249B6
:1034D00088420AD01149884207D01149884204D055
:1034E00040F2CD110F4807F0E1F9022084F83900CD
:1034F000204600F0F5F8002084F83A0084F83900FE
:1035000084F8380010BD012010BD000000100140FB
:103510000044004000480040004C00400050004083
:103520000014014030B50008704710B5044600682B
:10353000016811F0010FC16801F480710AD049B12E
:10354000016821F00101016094F83A0040F00100A7
:1035500084F83A00206801684269C1F3400102F032
:10356000010251B14AB1016821F00201016094F8F1
:103570003A0040F0040084F83A002068016842698B
:10358000C1F3800102F0010251B14AB1016821F09A
:103590000401016094F83A0040F0020084F83A0017
:1035A000206801684269C1F3C00102F0010251B113
:1035B0004AB1016821F00801016094F83A0040F036
:1035C000080084F83A0021680868C968C0F3401010
:1035D00001F0200140B139B1204606F0D3FA20684D
:1035E000016821F02001016021680868C968C0F302
:1035F000801001F0400140B139B1204606F056FC80
:103600002068016821F04001016094F83A00002828
:1036100005D0012084F839002046FFF785FF10BD52
:1036200070B5040011D0A06926490028264A274B0E
:10363000274D20680BD088421BD0904219D0984269
:1036400017D0A84215D0F92110E0012070BD8842A2
:103650000FD090420DD098420BD01E49884208D01E
:103660001D49884205D0A84203D0FE211B4807F01F
:103670001DF994F8390010B9204600F053F80220E3
:1036800084F839002068C16821F40051C1602046E7
:1036900006F0DCFA2068016921F49041016120689C
:1036A000416921F02A0141612068C16841F400515B
:1036B000C160002084F83A00012084F8390000201D
:1036C00070BD000000100140004400400048004070
:1036D00000140140004C00400050004030B500088C
:1036E00070B50646A0F10804406C08B100F0BCFAC1
:1036F000A06C002520B1FCF72FFFA06C8563A563AB
:10370000606C20B1FCF728FF606C8563E56320687E
:10371000FDF7F6F86068FDF7F3F83068BDE8704033
:1037200007F00AB910B5A0F10804006807F04AF9DB
:103730002068FDF7F8F8606C70B1006D18B9802151
:1037400014A007F0B3F8606CE063616C04F108004A
:103750008863606CFCF756FF6068FDF7E4F8A06CC6
:1037600070B1006D18B989210AA007F09FF8A06C0C
:10377000A063A16C04F108008863A06CFCF742FF11
:10378000E06C002805D004F10801BDE8104000F00D
:10379000D9BA10BD2E2E5C2E2E5C2E2E5C2E2E5CE9
:1037A0002E2E5C2E2E5C447269766572735C4D53CE
:1037B000505C5372635C75736172742E6300000019
:1037C00070B5044690F83900012801D0122835D18F
:1037D00079B372B394F8380001282FD0012084F80F
:1037E0003800A162A285002584F83A5094F8390087
:1037F000122821D05FF0220084F83900636B104852
:10380000D863636B0F481864636B0F48986408466D
:103810001346666B216802463046091DFEF7BAFE64
:103820002068416941F04001416184F8385000202E
:1038300070BDFFE70120FBE73220DDE70220F7E75C
:10384000A9960008D396000887960008704770472D
:103850002DE9F05F1D460A9F16468846040007D0F2
:10386000B8F1000F04D01EB14FF6FF70864202D3AC
:103870000120BDE8F09F94F839000228F9D094F8AF
:103880003900032860D094F83900E8B394F839007F
:10389000042859D02046FFF787FD94F83900012805
:1038A00054D094F83900122850D0606B0068016839
:1038B00021F010010160606B0068016821F00101D6
:1038C00001601DB1606B0068C06828601FB1606B4B
:1038D000006840683860616B0968C1F80C80616BF2
:1038E000B0B209684860606B874D884E864F874B41
:1038F000483D6036DFF8149218370168DFF808C2D7
:1039000009F11809D81400E01EE0DFF8FCA1DFF887
:10391000FCB1DFF8F4E18202AAF1300A0BF1780B76
:103920000EF1300E4FF00068614543D9A5F1040C4B
:10393000DCF800C0994205D0A94203D0B14201D0C1
:10394000B94217D1202030E0032092E72046FFF74C
:1039500056FD1DB1606B0068C06828601FB1606BC8
:10396000006840683860B2B241462046BDE8F05F6A
:10397000FFF726BF494518D0514516D0594514D0F8
:10398000714512D06148303081420BD05E48183802
:10399000814207D05D489030814203D05A48483078
:1039A000814201D1104600E040464CEA000C5648E6
:1039B0004C3834E0DFF854C10CF1A80C614531D922
:1039C000DFF844C1ACF1500CDCF800C0994205D0DE
:1039D000A94203D0B14201D0B94201D120201AE05E
:1039E000494518D0514516D0594514D0714512D0CB
:1039F0004648303081420BD043481838814207D0C6
:103A000042489030814203D03F484830814201D142
:103A1000104600E040464CEA000C3B485038C0F8E5
:103A200000C060E0DFF8E4C00CF1480C6145DFF84D
:103A3000E0C02CD9DCF80CC0994205D0A94203D0D3
:103A4000B14201D0B94201D120201AE0494518D035
:103A5000514516D0594514D0714512D02B483030FD
:103A600081420BD028481838814207D0274890302F
:103A7000814203D024484830814201D1104600E001
:103A800040464CEA000C2248C0F80CC02BE0DCF8A1
:103A900008C0994205D0A94203D0B14201D0B94231
:103AA00001D120201AE0494518D0514516D059457A
:103AB00014D0714512D01548303081420BD01248D5
:103AC0001838814207D011489030814203D00E4807
:103AD0004830814201D1104600E040464CEA000CDB
:103AE0000B48C0F808C0606B0068016841F0010134
:103AF0000160606B0068016841F0100101602046C0
:103B0000FFF77DFC0020B4E65864024010600240DC
:103B1000006002402DE9F047044690F839009946CC
:103B20000D46012801D0222858D12DB322B394F894
:103B30003800012852D0012684F83860002784F824
:103B40003A7094F83900222819D0122084F83900EC
:103B5000A284E2844FF48058E08C4B46401EE084FF
:103B6000A0684FF0000240454FF08001204613D17D
:103B700006F0EDF908BB04E00120BDE8F087322033
:103B8000E4E728882168C0F308004860206908B18C
:103B90006D1C08E0AD1C06E006F0D9F968B9216893
:103BA00015F8010B4860E08C0028D5D14B46002267
:103BB0004021204606F0CBF908B10320DDE794F858
:103BC0003900322806D084F8396000BF84F8387094
:103BD0000020D2E7222084F83900F7E70220CCE762
:103BE00070B5044690F83900012801D0222831D15F
:103BF00061B35AB394F8380001282BD0012084F81F
:103C000038002162A284E284002584F83A5094F8B6
:103C1000390022281CD0122084F83900236B0E486A
:103C2000D863236B0D481864236B0D48986426688D
:103C30001346321D206BFEF7ADFC2068416941F050
:103C40008001416184F83850002070BD012070BDB2
:103C50003220E1E7022070BDDD96000829970008B8
:103C6000879600087047704770B5040003D13A2169
:103C700010A006F01BFE94F90000512803DD3B2143
:103C80000CA006F013FE94F90000FEF7C7FE002515
:103C90002575206900280BD0E06818B9432105A0DC
:103CA00006F004FE94F90010E06800F045F8256184
:103CB00070BD00002E2E5C2E2E5C2E2E5C2E2E5CF7
:103CC0002E2E5C2E2E5C447269766572735C4D53A9
:103CD000505C5372635C6972712E63002DE9F04190
:103CE00007461C4615460E46182007F045F90028E1
:103CF00006D00021C0E90341077046600175856068
:103D0000BDE8F0810B46D0E9011290F90000FFF701
:103D1000E5BF002801D007F009B97047512901DD3E
:103D20000020704750F821007047512903DC002A19
:103D300001D040F821207047512902DC002240F8D0
:103D40002120704770B50D46040003D1252113A032
:103D500006F0ACFD94F90000512803DD26210FA0E8
:103D600006F0A4FDE06818B92A210CA006F09EFD1B
:103D700035B125612A4694F90010E068FFF7D5FFB8
:103D800001202075D4E9011294F90000FEF75CFED1
:103D900094F90000BDE87040FEF74BBE2E2E5C2E5D
:103DA0002E5C2E2E5C2E2E5C2E2E5C2E2E5C4472F3
:103DB00069766572735C4D53505C5372635C6972D3
:103DC000712E63000907090E002806DA00F00F00C3
:103DD00000F1E02080F8141D704700F1E02080F829
:103DE0000014704710B500F0CCFE01F0B3F900F0FC
:103DF000DCFB02F0B0FA02F0ACFABDE8104004F0CF
:103E000079BA10B5FEF7DAFDBDE81040FFF76DBADC
:103E10001048016841F4700101600F48016841F0E9
:103E2000010101600C4A00210832116002680B4B4D
:103E30001A400260031D0A4A1A60026822F48022B6
:103E4000026005480C30016002495806803908605C
:103E50007047000088ED00E000380240FFFFF6FEEA
:103E60001030002470B53C4D8AB002AB08AA291D61
:103E70002868FCF781FB040003D1812137A006F0FC
:103E800079FA442600968223002208A8216D06F0C4
:103E90003BF90096216883230022286806F034F954
:103EA00084210020CDE9000101233022211D281D9D
:103EB00006F0B4F800968523002202A8616D06F092
:103EC00023F994250095002294F858108623104673
:103ED00006F01AF90095E16C00228923104606F0DD
:103EE00013F90095002294F834108A23104606F046
:103EF0000BF9009500228B231046A16B06F004F904
:103F0000009594F8351000228C23104606F0FCF83A
:103F1000009500228D231046E16B06F0F5F8009520
:103F200000228E231046A16C06F0EEF800950022C8
:103F30008F231046216C06F0E7F8009500229023AD
:103F40001046616C06F0E0F8002C02D0204606F026
:103F5000EDFF0AB070BD00008CB0000820457870FD
:103F60006563746564204E6F6E2D4E554C4C000099
:103F70001FB515487A2306A2806811A18DE80F00AD
:103F800012A3194A19491A4806F0D8FB1FBD0000B0
:103F90002E2E5C2E2E5C2E2E5C2E2E5C2E2E5C2E5B
:103FA0002E5C447269766572735C4D53505C546547
:103FB00073745C646D615F746573742E63000000DC
:103FC00043746F72000000003400002054455354C5
:103FD00028444D4145585F48616E646C652C204310
:103FE000746F722900000000A9450008653E0008B2
:103FF000A7450008F8B50022214B11461020FFF715
:104000006DFE20490646334601C91F4AFCF7B4FA43
:104010000446FCF7F7FA2046FCF79EFA2168206D6B
:10402000FCF7D2FB18B1FB2118A006F0A3F99425E8
:10403000009594F835100022FC23104606F064F831
:10404000606D006918B1FD2117A006F093F9009585
:10405000606D0022FE23017D104606F055F80095A4
:10406000002294F85810FF23104606F04DF8204621
:10407000FCF7A0FA3046BDE8F840FFF74ABE000062
:104080009C0100202CB100083000002020457870F1
:1040900065637465642046414C5345205761732025
:1040A00054525545000000002045787065637465E2
:1040B00064204E554C4C00001FB51748F32306A250
:1040C000806811A18DE80F0014A31D4A1D491E48E8
:1040D00006F034FB1FBD00002E2E5C2E2E5C2E2E13
:1040E0005C2E2E5C2E2E5C2E2E5C447269766572E0
:1040F000735C4D53505C546573745C646D615F74A4
:104100006573742E63000000444D4145585F44655B
:10411000496E697400000000340000205445535477
:1041200028444D4145585F48616E646C652C2044BD
:104130004D4145585F4465496E697429000000008F
:10414000A9450008F53F0008A7450008F8B500227A
:10415000204B11461020FFF7C1FD1F49064633468C
:1041600001C91E4AFCF708FA0446FCF74BFA21681D
:10417000206DFCF729FB18B9E92119A006F0FAF81F
:104180009425009594F83510EA230022012005F0CB
:10419000BBFF0095606DEB2300220169204605F00E
:1041A000B3FF0095606DEC230022017D012005F036
:1041B000ABFF009594F85810ED230022012005F084
:1041C000A3FF2046FCF7F6F93046BDE8F840FFF7BC
:1041D000A0BD00009C0100202CB100083000002090
:1041E00020457870656374656420545255452057A6
:1041F00061732046414C5345000000001FB516482E
:10420000E22306A2806811A18DE80F0013A31B4AC8
:104210001B491C4806F092FA1FBD00002E2E5C2E92
:104220002E5C2E2E5C2E2E5C2E2E5C2E2E5C44726E
:1042300069766572735C4D53505C546573745C644D
:104240006D615F746573742E63000000444D4145D9
:10425000585F496E6974000034000020544553547F
:1042600028444D4145585F48616E646C652C20447C
:104270004D4145585F496E6974290000A945000801
:104280004D410008A745000800B5054987B06B46B9
:1042900001C906AAFCF770F9FCF78CF907B000BD5C
:1042A0008CB000081FB51548952306A2806811A19F
:1042B0008DE80F0012A3194A19491A4806F03EFA70
:1042C0001FBD00002E2E5C2E2E5C2E2E5C2E2E5C32
:1042D0002E2E5C2E2E5C447269766572735C4D5393
:1042E000505C546573745C646D615F746573742EA7
:1042F0006300000044746F7200000000340000206E
:104300005445535428444D4145585F48616E646C90
:10431000652C2044746F722900000000A945000834
:1043200089420008A745000870B5F2B0A5225021C7
:1043300002A8FBF765FFB522182116A8FBF760FF5E
:1043400070A86E901CA800256F908DF86C5016AA6E
:1043500002A96EA8FCF733F9040003D1B7212CA001
:1043600006F008F844260096216DB82300226E98C6
:1043700005F0CAFE00962168BA230022029805F0D3
:10438000C3FEBB20CDE9005001233022211D03A82C
:1043900005F044FE94250095606DBD23002290F940
:1043A00000109DF9580005F0AFFE0095606DBE232A
:1043B00000224168179805F0A7FE0095606DBF23A5
:1043C00000228168189805F09FFE0095606DC0235B
:1043D0000022C1686F9805F097FE0095606D00227D
:1043E000C123017D104605F08FFE0095002294F850
:1043F0005810C323104605F087FE606D08B106F023
:1044000095FD002C02D0204606F090FD72B070BDE4
:10441000204578706563746564204E6F6E2D4E552F
:104420004C4C00001FB51748A22306A2806811A1BA
:104430008DE80F0014A31D4A1D491E4806F07EF9A1
:104440001FBD00002E2E5C2E2E5C2E2E5C2E2E5CB0
:104450002E2E5C2E2E5C447269766572735C4D5311
:10446000505C546573745C646D615F746573742E25
:1044700063000000466163746F7279437265617412
:1044800065000000340000205445535428444D4139
:1044900045585F48616E646C652C20466163746F9B
:1044A000727943726561746529000000A9450008AE
:1044B00029430008A745000800B5EFB0A522502108
:1044C00052A8FBF79DFEB522182166A8FBF798FEBF
:1044D0006EA86C9000208DF8AC01CDF8B4D166AA1E
:1044E00052A96CA8FCF76BF801466CA8FCF77DF8A4
:1044F0006FB000BD1FB51748C92306A2806811A17F
:104500008DE80F0014A31D4A1D491E4806F016F938
:104510001FBD00002E2E5C2E2E5C2E2E5C2E2E5CDF
:104520002E2E5C2E2E5C447269766572735C4D5340
:10453000505C546573745C646D615F746573742E54
:1045400063000000466163746F727944657374722E
:104550006F790000340000205445535428444D41E5
:1045600045585F48616E646C652C20466163746FCA
:10457000727944657374726F79290000A945000847
:10458000B9440008A745000810B5FFF7F1FCFFF794
:1045900089FEFFF747FFFFF7ADFFFFF72FFEBDE8EE
:1045A0001040FFF789BD70477047AFF3008010B52A
:1045B00000F0E4F9BDE81040FFF7E6BF10B5094C84
:1045C00009482146FCF730F821460748FCF7FCF87B
:1045D000002805D1BDE810403C2104A005F0CABE6A
:1045E00010BD000088600240340000202045787033
:1045F00065637465642054525545205761732046A5
:10460000414C5345000000001FB51948392306A24C
:10461000406811A18DE80F0016A3214A21492248C4
:1046200006F08CF81FBD00002E2E5C2E2E5C2E2E68
:104630005C2E2E5C2E2E5C2E2E5C4472697665728A
:10464000735C4D53505C546573745C646D615F744E
:104650006573742E63000000436C6F636B4F666676
:104660005475726E4F6E654F6E4269745365740077
:10467000340000205445535428444D415F436C6F2F
:10468000636B2C20436C6F636B4F66665475726E60
:104690004F6E654F6E4269745365742900000000C7
:1046A000B9490008BD4500089549000810B50749FB
:1046B0000748FBF7B9FF06F07DF9002805D1BDE8F2
:1046C0001040362103A005F055BE10BD88600240A1
:1046D000340000202045787065637465642054526E
:1046E0005545205761732046414C5345000000005A
:1046F0001FB51A48332306A2406811A18DE80F00A8
:1047000017A3224A2249234806F018F81FBD0000CB
:104710002E2E5C2E2E5C2E2E5C2E2E5C2E2E5C2ED3
:104720002E5C447269766572735C4D53505C5465BF
:1047300073745C646D615F746573742E6300000054
:10474000436C6F636B4F66665475726E4F6E654F48
:104750006E436C6F636B4F6E0000000034000020EE
:104760005445535428444D415F436C6F636B2C2078
:10477000436C6F636B4F66665475726E4F6E654F18
:104780006E436C6F636B4F6E29000000B9490008DF
:10479000AD4600089549000810B50B4C0B48214662
:1047A000FBF742FF21460948FBF7A8FF21460748CF
:1047B000FCF70AF8002805D0BDE810404A2104A003
:1047C00005F0D8BD10BD0000886002403400002014
:1047D0002045787065637465642046414C534520DC
:1047E0005761732054525545000000001FB5194809
:1047F000462306A2406811A18DE80F0016A3204AA7
:104800002049214805F09AFF1FBD00002E2E5C2E86
:104810002E5C2E2E5C2E2E5C2E2E5C2E2E5C447278
:1048200069766572735C4D53505C546573745C6457
:104830006D615F746573742E63000000436C6F6379
:104840006B4F6E5475726E4F6666426974436C6549
:1048500061720000340000205445535428444D41F7
:104860005F436C6F636B2C20436C6F636B4F6E54B4
:1048700075726E4F6666426974436C656172290099
:10488000B9490008994700089549000810B50A4C35
:104890000A482146FBF7C8FE21460848FBF72EFFD1
:1048A00006F088F8002805D0BDE81040432104A098
:1048B00005F060BD10BD000088600240340000209B
:1048C0002045787065637465642046414C534520EB
:1048D0005761732054525545000000001FB5194818
:1048E0003F2306A2406811A18DE80F0016A3204ABD
:1048F0002049214805F022FF1FBD00002E2E5C2E0E
:104900002E5C2E2E5C2E2E5C2E2E5C2E2E5C447287
:1049100069766572735C4D53505C546573745C6466
:104920006D615F746573742E63000000436C6F6388
:104930006B4F6E5475726E4F6666436C6F636B4F50
:1049400066660000340000205445535428444D410D
:104950005F436C6F636B2C20436C6F636B4F6E54C3
:1049600075726E4F6666436C6F636B4F66662900A7
:10497000B94900088D4800089549000810B5FFF7AF
:10498000B7FEFFF741FEFFF7A9FFBDE81040FFF7B4
:104990002DBF00000648002101800648016821F46F
:1049A00000110160016821F480010160704700007E
:1049B00034000020303802400448016841F40011FE
:1049C0000160016841F480010160704730380240A5
:1049D00070B51A4D86B002AA291D2868FBF775FF2D
:1049E000040003D1CF2116A005F0C4FC4426009694
:1049F0002168D0230022286805F086FBD121002001
:104A0000CDE9000101231422211D281D05F006FB1C
:104A10000096D223002202A8A16905F075FB94201C
:104A200000900022217FD323104605F06DFB002C5F
:104A300002D0204606F07AFA06B070BD2CB000080D
:104A4000204578706563746564204E6F6E2D4E55F9
:104A50004C4C00001FB51548C82306A2406811A1A0
:104A60008DE80F0012A3184A1849194805F066FE90
:104A70001FBD00002E2E5C2E2E5C2E2E5C2E2E5C7A
:104A80002E2E5C2E2E5C447269766572735C4D53DB
:104A9000505C546573745C6770696F5F74657374A0
:104AA0002E63000043746F72000000002800002095
:104AB00054455354284750494F45585F54797065C1
:104AC0002C2043746F722900814B0008D1490008E3
:104AD0007F4B00081FB505496A4601C9FBF7F5FE83
:104AE000002801D0FBF71AFF1FBD00002CB0000802
:104AF0001FB51548D82306A2406811A18DE80F0004
:104B000012A3184A1849194805F018FE1FBD0000E5
:104B10002E2E5C2E2E5C2E2E5C2E2E5C2E2E5C2ECF
:104B20002E5C447269766572735C4D53505C5465BB
:104B300073745C6770696F5F746573742E630000D3
:104B400044746F7200000000280000205445535444
:104B5000284750494F45585F547970652C2044745C
:104B60006F722900814B0008D54A00087F4B00086E
:104B700010B5FFF76FFFBDE81040FFF7B9BF7047F2
:104B80007047AFF3008010B500F0A2FABDE8104006
:104B9000FFF7EEBF10B5174C402221461648FBF731
:104BA000D1FE802221461448FBF7CCFE802221460C
:104BB0001148FBF735FF06F007F818B98E210FA052
:104BC00005F0D8FB402221460B48FBF797FF18B9A8
:104BD0008F210AA005F0CEFB802221460648FBF774
:104BE0008DFF002805D0BDE8104090210AA005F0F7
:104BF000C1BB10BD000802408C0100202045787028
:104C0000656374656420545255452057617320468E
:104C1000414C534500000000204578706563746581
:104C2000642046414C5345205761732054525545EA
:104C3000000000001FB51748892306A2006811A1D3
:104C40008DE80F0014A31C4A1C491D4805F076FD91
:104C50001FBD00002E2E5C2E2E5C2E2E5C2E2E5C98
:104C60002E2E5C2E2E5C447269766572735C4D53F9
:104C7000505C546573745C6770696F5F74657374BE
:104C80002E630000436C6F636B476574325075741C
:104C90003100000028000020544553542847504953
:104CA0004F5F436C6F636B2C20436C6F636B476586
:104CB000743250757431290021510008954B000859
:104CC000ED50000810B50D4C402221460C48FBF772
:104CD00039FE05F079FF18B97D210AA005F04AFBDD
:104CE000402221460648FBF709FF002805D1BDE810
:104CF00010407E2103A005F03DBB10BD000802401E
:104D00008C010020204578706563746564205452DE
:104D10005545205761732046414C53450000000023
:104D20001FB516487A2306A2006811A18DE80F006E
:104D300013A31A4A1A491B4805F000FD1FBD0000C5
:104D40002E2E5C2E2E5C2E2E5C2E2E5C2E2E5C2E9D
:104D50002E5C447269766572735C4D53505C546589
:104D600073745C6770696F5F746573742E630000A1
:104D7000436C6F636B4765740000000028000020DF
:104D800054455354284750494F5F436C6F636B2C15
:104D900020436C6F636B4765742900002151000844
:104DA000C54C0008ED50000810B5104C40222146BB
:104DB0000F48FBF7C7FD402221460D48FBF730FEA8
:104DC00005F002FF18B185210AA005F0D3FA4022B0
:104DD00021460748FBF792FE002805D0BDE81040A9
:104DE000862104A005F0C6BA10BD000000080240EC
:104DF0008C0100202045787065637465642046410D
:104E00004C53452057617320545255450000000013
:104E10001FB51648812306A2006811A18DE80F0076
:104E200013A31A4A1A491B4805F088FC1FBD00004D
:104E30002E2E5C2E2E5C2E2E5C2E2E5C2E2E5C2EAC
:104E40002E5C447269766572735C4D53505C546598
:104E500073745C6770696F5F746573742E630000B0
:104E6000436C6F636B5075740000000028000020D5
:104E700054455354284750494F5F436C6F636B2C24
:104E800020436C6F636B507574290000215100083A
:104E9000A94D0008ED50000800B589B02022154941
:104EA00001A8FBF78DF91448079001A8FBF73BFD1B
:104EB00001A8FBF725FD1149029A0798FBF71EFE92
:104EC00018B1A6210EA005F055FA02A9019805F027
:104ED00039FE18B9A72111A005F04CFA94200090D2
:104EE00000229DF82010A823104605F00DF909B006
:104EF00000BD00002CB000088C010020000802401A
:104F00002045787065637465642046414C534520A4
:104F100057617320545255450000000020457870B9
:104F2000656374656420545255452057617320466B
:104F3000414C5345000000001FB517489F2306A2AF
:104F4000006811A18DE80F0014A31C4A1C491D48DC
:104F500005F0F4FB1FBD00002E2E5C2E2E5C2E2EC5
:104F60005C2E2E5C2E2E5C2E2E5C44726976657251
:104F7000735C4D53505C546573745C6770696F5F0C
:104F8000746573742E6300004750494F45585F4461
:104F900065496E6974000000280000205445535490
:104FA000284750494F5F436C6F636B2C2047504933
:104FB0004F45585F4465496E6974290021510008C6
:104FC000994E0008ED50000800B589B02022134921
:104FD00001A8FBF7F5F81248079001A8FBF7A3FC1E
:104FE0001049029A0798FBF789FD18B99A210EA07B
:104FF00005F0C0F902A9019805F0C2FD18B99B217E
:1050000009A005F0B7F9942000909DF820109C238A
:105010000022012005F078F809B000BD2CB000088E
:105020008C0100200008024020457870656374659B
:10503000642054525545205761732046414C5345D6
:10504000000000001FB51648932306A2006811A1B6
:105050008DE80F0013A31B4A1B491C4805F06EFB8B
:105060001FBD00002E2E5C2E2E5C2E2E5C2E2E5C84
:105070002E2E5C2E2E5C447269766572735C4D53E5
:10508000505C546573745C6770696F5F74657374AA
:105090002E6300004750494F45585F496E697400C0
:1050A0002800002054455354284750494F5F436C13
:1050B0006F636B2C204750494F45585F496E6974A8
:1050C0002900000021510008C94F0008ED500008D8
:1050D00010B5FFF725FEFFF79BFEFFF7ABFDFFF7CF
:1050E000B1FFBDE81040FFF727BF0000094810B529
:1050F000016821F00401016040210748FDF7A0FA92
:1051000000200649024600BF21F81020401C082854
:10511000FADB10BD30380240000802408C0100204C
:10512000094810B5016821F00401016040210748D9
:10513000FDF786FA00200649024600BF21F810203C
:10514000401C0828FADB10BD30380240000802403D
:105150008C010020AFF3008010B500F05DFABDE8CF
:10516000104000F035B9000070B5204DD4B001A951
:105170002846FEF7C7FD040003D184211CA005F0DA
:10518000F9F89426009694F9001095F9000085230B
:10519000002204F0B9FF0096616886230022686847
:1051A00004F0B2FF0096A16887230022A86804F0EB
:1051B000ABFF442000908823002201A8E16804F09E
:1051C000A3FF206918B189210EA005F0D3F800963D
:1051D0000022217D8A23104604F096FF002C02D085
:1051E000204605F0A3FE54B070BD000088B1000851
:1051F000204578706563746564204E6F6E2D4E5542
:105200004C4C0000204578706563746564204E55F1
:105210004C4C00001FB517487E2306A2406811A120
:105220008DE80F0014A31D4A1D491E4805F086FA9B
:105230001FBD00002E2E5C2E2E5C2E2E5C2E2E5CB2
:105240002E2E5C2E2E5C447269766572735C4D5313
:10525000505C546573745C6972715F746573742E0D
:105260006300000043746F72427954656D706C6125
:1052700074650000400000205445535428495251A1
:105280005F48616E646C652C2043746F7242795480
:10529000656D706C61746529000000001756000888
:1052A000695100081556000830B5D3B001AB032290
:1052B00002212620FEF712FD040003D171211BA05C
:1052C00005F058F89425009594F9001072230022F7
:1052D000262004F019FF0095732300220220616844
:1052E00004F012FF0095742300220320A16804F04B
:1052F0000BFF442000907523002201A8E16804F010
:1053000003FF206918B176210DA005F033F8009550
:105310000022217D7723104604F0F6FE002C02D0F7
:10532000204605F003FE53B030BD000020457870E4
:105330006563746564204E6F6E2D4E554C4C0000B5
:10534000204578706563746564204E554C4C0000B0
:105350001FB515486C2306A2406811A18DE80F0007
:1053600012A3184A1849194805F0E8F91FBD0000B2
:105370002E2E5C2E2E5C2E2E5C2E2E5C2E2E5C2E67
:105380002E5C447269766572735C4D53505C546553
:1053900073745C6972715F746573742E63000000CE
:1053A00043746F72000000004000002054455354C5
:1053B000284952515F48616E646C652C2043746FBC
:1053C0007229000017560008A95200081556000857
:1053D00010B500F0DBF800F051F8FFF7B9FFBDE8B9
:1053E0001040FFF717BF000000B5DBB0182153A82D
:1053F000FAF70DFF26208DF84C0101A856902620C3
:10540000FDF70CFB59A953A8FEF79CFC53A8FEF727
:105410002BFC262005F0E0FB18B165210CA004F060
:10542000A9FF26215698FEF779FC18B166210FA036
:1054300004F0A0FF9420009000229DF860116723E3
:10544000104604F061FE2620FDF7E8FA5BB000BDCF
:105450002045787065637465642046414C5345204F
:105460005761732054525545000000002045787064
:105470006563746564204E554C4C00001FB516489A
:10548000562306A2406811A18DE80F0013A31B4A02
:105490001B491C4805F052F91FBD00002E2E5C2E42
:1054A0002E5C2E2E5C2E2E5C2E2E5C2E2E5C4472DC
:1054B00069766572735C4D53505C546573745C69B6
:1054C00072715F746573742E630000004952515FFE
:1054D0004465496E697400004000002054455354EF
:1054E000284952515F48616E646C652C20495251C5
:1054F0005F4465496E697429000000001756000872
:10550000E95300081556000800B5DBB0182153A870
:10551000FAF77DFE26208DF84C0101A85690262032
:10552000FDF77CFA59A953A8FEF70CFC262005F0DC
:1055300053FB18B94F210EA004F01CFF26215698EA
:10554000FEF7ECFB0146442000905023002259A8AE
:1055500004F0DAFD942000909DF8601151230022A0
:10556000012004F0D1FD2620FDF758FA5BB000BD04
:105570002045787065637465642054525545205702
:1055800061732046414C5345000000001FB516488A
:10559000412306A2406811A18DE80F0013A31A4A07
:1055A0001A491B4805F0CAF81FBD00002E2E5C2EBC
:1055B0002E5C2E2E5C2E2E5C2E2E5C2E2E5C4472CB
:1055C00069766572735C4D53505C546573745C69A5
:1055D00072715F746573742E630000004952515FED
:1055E000496E697400000000400000205445535487
:1055F000284952515F48616E646C652C20495251B4
:105600005F496E69742900001756000809550008A3
:10561000155600087047704710B500F023F8BDE834
:10562000104000F0A5B830B5D5B026258DF84C5106
:1056300053AC4FF4A47101A8FAF7E9FD22462946BC
:1056400001A8FEF772FB9DF94C1101A8FEF766FB5D
:1056500001464420009017230022204604F054FD08
:1056600055B030BD1FB51A480F2306A2006811A11E
:105670008DE80F0017A3264A2649274805F05EF853
:105680001FBD00002E2E5C2E2E5C2E2E5C2E2E5C5E
:105690002E2E5C2E2E5C447269766572735C4D53BF
:1056A000505C546573745C6972715F746573742EB9
:1056B000630000004952515F48616E646C65724F2F
:1056C000626A6563745F526567697374657200002E
:1056D0004000002054455354284952515F48616EA0
:1056E000646C65724F626A6563745265676973744E
:1056F00072792C204952515F48616E646C65724F1B
:10570000626A6563745F52656769737465722900C4
:1057100033580008275600083158000830B5D3B078
:1057200026248DF8484152AD4FF4A4716846FAF72B
:105730006EFD2A4621466846FEF7F7FA9DF94811A4
:105740006846FEF7F9FA9DF948116846FEF7E6FA51
:10575000002803D0232102A004F00CFE53B030BD7A
:10576000204578706563746564204E554C4C00008C
:105770001FB51B481A2306A2006811A18DE80F006F
:1057800018A3284A2849294804F0D8FF1FBD000063
:105790002E2E5C2E2E5C2E2E5C2E2E5C2E2E5C2E43
:1057A0002E5C447269766572735C4D53505C54652F
:1057B00073745C6972715F746573742E63000000AA
:1057C0004952515F48616E646C65724F626A6563ED
:1057D000745F556E726567697374657200000000CE
:1057E0004000002054455354284952515F48616E8F
:1057F000646C65724F626A6563745265676973743D
:1058000072792C204952515F48616E646C65724F09
:10581000626A6563745F556E7265676973746572F9
:1058200029000000335800081D57000831580008AF
:10583000704770472DE9F047CEB02022354938A88F
:10584000FAF7BEFC2022344940A8FAF7B9FC48AF69
:1058500004AE32AC1BAD03970096DFF8C090CDE9E3
:10586000015440AB38AA09F10401002003F031FED5
:1058700020B140F221112AA004F07CFD039700968C
:10588000DFF8ACA0CDE9015440AB38AA0021504666
:1058900003F01FFE20B14FF4927121A004F06AFDC5
:1058A0000096B04603974E46CDE9015440AB002226
:1058B000311DD146504603F00CFE20B140F22711B5
:1058C00017A004F057FDCDF800800397CDE90154EF
:1058D000002338AA311D484603F0FBFD20B14FF4E8
:1058E00095710FA004F046FD0020CDE90240CDE9FE
:1058F000008540AB38AA311D484603F0EAFD002878
:1059000004D040F22D1106A004F034FD4EB0BDE8E5
:10591000F08700004CB000086CB00008D4AF00085D
:10592000204578706563746564204E554C4C0000CA
:10593000004400401FB5174840F2151305A2006847
:1059400010A18DE80F0014A31D4A1E491E4804F043
:10595000F5FE1FBD2E2E5C2E2E5C2E2E5C2E2E5C98
:105960002E2E5C2E2E5C447269766572735C4D53EC
:10597000505C546573745C75736172745F746573A5
:10598000742E630043746F72496E76616C69644172
:105990007267730014000020544553542855415237
:1059A0005445585F48616E646C652C2043746F7277
:1059B000496E76616C69644172677329000000006A
:1059C00051630008355800084F630008F0B5CDB0AA
:1059D0002022394932A8FAF7F3FB202237493AA8A6
:1059E000FAF7EEFB48AB42AA1BA904A88DE80F000A
:1059F000334E344F3AAB32AA311D384603F069FDBD
:105A0000040004D140F207112FA004F0B3FC442598
:105A100000954FF48473002232A8216804F074FBCF
:105A2000009540F2091300223AA8616804F06CFB6B
:105A3000942000904FF4857300223846A16804F04A
:105A400063FB40F20B110020CDE9000101231C2271
:105A500004F10C01301D04F0E1FA00954FF4867357
:105A6000002204A8616C04F04FFB009540F20D1376
:105A700000221BA8A16C04F047FB00954FF487732C
:105A8000002242A8E16C04F03FFB009540F20F13A6
:105A9000002248A8216D04F037FB00950022AB00DE
:105AA0001046616D04F030FB002C02D0204605F05A
:105AB0003DFA4DB0F0BD00004CB000086CB00008DD
:105AC000D4AF0008004400402045787065637465D9
:105AD00064204E6F6E2D4E554C4C00001FB515487E
